S12302008602B7001CBDF71586008E0090A78430018C00C026F7BD06808604B700AC7C00A1
S1230220B58618B700AB7F00987F00A8BD02CBBDF700BD02E68601B700AA861CB700A68D70
S1230240787F00B27F00B1BD0319B600A8810827048D4F20F2BD06F3B600B184012608BD5B
S1230260040EB6009826B7B600B2260BBD0319B6009C263CBD03DCB600B184032608BD049E
S1230280E5B6009B262A8D1AB600B14C810C26014FB700B1B600B24C810326014FB700B2F8
S12302A020B6F600B0861312124A26FC5A26F639BD0601BDF71E7E02058E008886FFB70079
S12302C0A5A78430018C009026F7398E00C0BF00904FC628C1102E0286FFA7848B08843FC6
S12302E030015A26EF398E00C07F00A1C6053404C6083404BF0092A6842B06B700A0BD07E3
S123030006BE0092300135045A26E7B600A18B05B700A135045A26D6397F009DBE0090A69B
S123032084B700A02B29B600B3B100B42D078D5DB6009A26178D30BD0706BE0090A684BB57
S123034000AA843FA784B700A0BD07067C009DBE009030018C00E826058D208E00C0BF00EF
S123036090B6009D27B639B6009144444484071F8948483404ABE0B700A139B600A84CB7F5
S123038000A8816026067F00A87000AA397F009A8DD5C1042735B600918B08B70093BE00AC
S12303A092A68481FF2623BE009086FFA784BD0706BE0092B600A0A784B600A18B05B7007D
S12303C0A1BD07067F00B37C009A397C009CBD07068DE6BD0741C664BDF724398601B5C09C
S12303E0102612BD06F3B600A6810227044AB700A6BD06F3398602B5C0102611BD06F3B6AB
S123040000A6813B2C044CB700A6BD06F339B600A52B112717BD06D17A00A5BD06D1B600DC
S12304203F2626398608B5C010270A39BD06D186FFB700A539B600A68B02B700A4861BB72D
S123044000A5BD06D17C00B3398E0088A684B100A42607A601B100A5270A30028C00902693
S1230460EB8D0D3986FFA784A701BD07248DC039B600A5C605BD06BC1F8948483404ABE054
S1230480B700A11F984848488AC0B70093C608BE0092A6842B0CB600A4A0842A01408104F0
S12304A02F077C00935A26E739A684B700A086FFA784BD042CC601BD0668BD0741C603BDB8
S12304C0F724BD0741BD0706BD06767A00AB2701397C0098B600B5810A26067C00AC7C0095
S12304E0ACBD0601397F00998E0088F600AFF700AEBF0094A684B700A22B33A601B700A3A2
S1230500811F2738BD06E8BE00947C00A3B600A3A701BD06E8B6003F2708BD054DB6009B8C
S1230520260BBE00943002F600AE5A26C139B6009926EFB600B126EA8D5C20E68D0220E289
S1230540BD06E8BE009486FFA784A70139B600A4B100A22611B600A5B100A326098DE4BD19
S12305600724BD042F39B600A3811C2C01398DD0BD0757C664F70021C640BDF7277A00AC06
S12305802E047C009B39BD0601BDF700BD02B9BD02E6BD06F339BDF706C60834048407B74F
S12305A000978620C6053404B70096BA00978AC0B70093BE0092A6842A1DB60096800835FB
S12305C0045A26E2B60097F600B3C40127024A4A4C35045A26C539350435048B02B700A2DE
S12305E0BE0094A784B600964444441F8948483404ABE08B03B700A3A701BD06E87C009917
S1230600394FC630BDF70343C632BDF7038610BD076B862CBD076B8604BDF74BB600B58E87
S123062000B6BDF70C8E00B78D4730018D438618BDF74BB600A78E00B6BDF70C4FA7848E20
S123064000B6C60434048D29300135045A26F58633BDF74B8E00AC8D188639B7002E8E0779
S123066082C604BDF712C6C8F700207D002026FB39A6847EF745B600A781FA27037C00A7BF
S1230680C62886FFBD06BC1F89B600A7BD06BC1F8986403404A0E0B700B086FAB000A7C6B6
S12306A040BD06BC8B01B700B48604F600B5C1062C064AC1032C014AB700AF397F00AD5DA5
S12306C0270B3404A0E025057C00AD20F5B600AD39B600A4B7002EB600A5B7002FC6018E53
S12306E007817F003F7EF712B600A2B7002EB600A320E7B600A6B7002E861CB7002FC604F9
S12307008E07827EF712C604B600A1B7002FB600A0B7002E840127068E078A7EF7128E0708
S1230720867EF7128D05C602BD0668B600A44AB7002EB600A54AB7002FC6038E07947EF7A8
S123074012B600A04AB7002EB600A14AB7002FC6068E078E7EF712B600A64AB7002E861BD5
S1230760B7002FC6058E07977EF712B7002E8619B7002FC6078E079C7EF71286A7B7C088F6
S123078039802070F888F8A8F850F8A8F8887CFEFEFEFE6CA040A0387CFEFEFEF0F0F0F0B6
S10707A0F0F0F0F091
S11A07C08E02004FE6843404ABE030018C080026F3B700FF7EF73CCD
S9030000FC
